{
  "address": "0x75E134D7Ae7051f74096e444C1F0E1032C1b5550",
  "abi": [
    {
      "inputs": [
        {
          "internalType": "address",
          "name": "exampleExternalContractAddress",
          "type": "address"
        }
      ],
      "stateMutability": "nonpayable",
      "type": "constructor"
    },
    {
      "anonymous": false,
      "inputs": [
        {
          "indexed": true,
          "internalType": "address",
          "name": "sender",
          "type": "address"
        },
        {
          "indexed": false,
          "internalType": "uint256",
          "name": "amount",
          "type": "uint256"
        }
      ],
      "name": "Stake",
      "type": "event"
    },
    {
      "inputs": [
        {
          "internalType": "address",
          "name": "",
          "type": "address"
        }
      ],
      "name": "balances",
      "outputs": [
        {
          "internalType": "uint256",
          "name": "",
          "type": "uint256"
        }
      ],
      "stateMutability": "view",
      "type": "function"
    },
    {
      "inputs": [],
      "name": "deadline",
      "outputs": [
        {
          "internalType": "uint256",
          "name": "",
          "type": "uint256"
        }
      ],
      "stateMutability": "view",
      "type": "function"
    },
    {
      "inputs": [],
      "name": "exampleExternalContract",
      "outputs": [
        {
          "internalType": "contract ExampleExternalContract",
          "name": "",
          "type": "address"
        }
      ],
      "stateMutability": "view",
      "type": "function"
    },
    {
      "inputs": [],
      "name": "execute",
      "outputs": [],
      "stateMutability": "nonpayable",
      "type": "function"
    },
    {
      "inputs": [],
      "name": "stake",
      "outputs": [],
      "stateMutability": "payable",
      "type": "function"
    },
    {
      "inputs": [],
      "name": "threshold",
      "outputs": [
        {
          "internalType": "uint256",
          "name": "",
          "type": "uint256"
        }
      ],
      "stateMutability": "view",
      "type": "function"
    },
    {
      "inputs": [],
      "name": "timeLeft",
      "outputs": [
        {
          "internalType": "uint256",
          "name": "",
          "type": "uint256"
        }
      ],
      "stateMutability": "view",
      "type": "function"
    },
    {
      "inputs": [],
      "name": "withdraw",
      "outputs": [],
      "stateMutability": "nonpayable",
      "type": "function"
    },
    {
      "stateMutability": "payable",
      "type": "receive"
    }
  ],
  "transactionHash": "0xcd570bd4bb78d0a6839c1ef1f926f99f4013b870b25ea4931cde8c61dcf2da1e",
  "args": [
    "0x562061854DE5DbB2D03C680288638a0D677CE189"
  ],
  "numDeployments": 3,
  "solcInputHash": "3056478e54a576c5a999bd888828f74b",
  "bytecode": "0x608060405234801561001057600080fd5b5060405161090838038061090883398101604081905261002f9161005e565b600080546001600160a01b0319166001600160a01b03831617905561005542607861008e565b600255506100b5565b60006020828403121561007057600080fd5b81516001600160a01b038116811461008757600080fd5b9392505050565b808201808211156100af57634e487b7160e01b600052601160045260246000fd5b92915050565b610844806100c46000396000f3fe60806040526004361061007f5760003560e01c80633ccfd60b1161004e5780633ccfd60b1461010657806342cde4e81461011b57806361461954146101375780639f75f2271461014c57600080fd5b80631300a6d11461009357806327e235e3146100bb57806329dcb0cf146100e85780633a4b66f1146100fe57600080fd5b3661008e5761008c610184565b005b600080fd5b34801561009f57600080fd5b506100a86102bd565b6040519081526020015b60405180910390f35b3480156100c757600080fd5b506100a86100d636600461070a565b60016020526000908152604090205481565b3480156100f457600080fd5b506100a860025481565b61008c610184565b34801561011257600080fd5b5061008c6102e1565b34801561012757600080fd5b506100a8670de0b6b3a764000081565b34801561014357600080fd5b5061008c6104ed565b34801561015857600080fd5b5060005461016c906001600160a01b031681565b6040516001600160a01b0390911681526020016100b2565b60025442106101d05760405162461bcd60e51b8152602060048201526013602482015272111958591b1a5b99481a185cc81c185cdcd959606a1b60448201526064015b60405180910390fd5b60008054906101000a90046001600160a01b03166001600160a01b0316639d9a7fe96040518163ffffffff1660e01b8152600401602060405180830381865afa158015610221573d6000803e3d6000fd5b505050506040513d601f19601f82011682018060405250810190610245919061073a565b156102625760405162461bcd60e51b81526004016101c79061075c565b33600090815260016020526040812080543492906102819084906107b3565b909155505060405134815233907febedb8b3c678666e7f36970bc8f57abf6d8fa2e828c0da91ea5b75bf68ed101a9060200160405180910390a2565b600060025442106102ce5750600090565b426002546102dc91906107cc565b905090565b6002544210156103335760405162461bcd60e51b815260206004820152601b60248201527f446561646c696e65206973206e6f74207265616368656420796574000000000060448201526064016101c7565b60008054906101000a90046001600160a01b03166001600160a01b0316639d9a7fe96040518163ffffffff1660e01b8152600401602060405180830381865afa158015610384573d6000803e3d6000fd5b505050506040513d601f19601f820116820180604052508101906103a8919061073a565b156103c55760405162461bcd60e51b81526004016101c79061075c565b336000908152600160205260409020548061042d5760405162461bcd60e51b815260206004820152602260248201527f596f7520646f6e277420686176652062616c616e636520746f20776974686472604482015261617760f01b60648201526084016101c7565b336000818152600160205260408082208290555190919083908381818185875af1925050503d806000811461047e576040519150601f19603f3d011682016040523d82523d6000602084013e610483565b606091505b50509050806104e95760405162461bcd60e51b815260206004820152602c60248201527f4661696c656420746f2073656e6420757365722062616c616e6365206261636b60448201526b103a37903a3432903ab9b2b960a11b60648201526084016101c7565b5050565b60008054906101000a90046001600160a01b03166001600160a01b0316639d9a7fe96040518163ffffffff1660e01b8152600401602060405180830381865afa15801561053e573d6000803e3d6000fd5b505050506040513d601f19601f82011682018060405250810190610562919061073a565b1561057f5760405162461bcd60e51b81526004016101c79061075c565b6002544210156105d15760405162461bcd60e51b815260206004820152601860248201527f446561646c696e65206e6f74207265616368656420796574000000000000000060448201526064016101c7565b47670de0b6b3a76400008110156106225760405162461bcd60e51b8152602060048201526015602482015274151a1c995cda1bdb19081b9bdd081c995858da1959605a1b60448201526064016101c7565b6000805460408051600481526024810182526020810180516001600160e01b031663522e117760e01b17905290516001600160a01b03909216918491610667916107df565b60006040518083038185875af1925050503d80600081146106a4576040519150601f19603f3d011682016040523d82523d6000602084013e6106a9565b606091505b50509050806104e95760405162461bcd60e51b815260206004820152602760248201527f6578616d706c6545787465726e616c436f6e74726163742e636f6d706c6574656044820152660819985a5b195960ca1b60648201526084016101c7565b60006020828403121561071c57600080fd5b81356001600160a01b038116811461073357600080fd5b9392505050565b60006020828403121561074c57600080fd5b8151801515811461073357600080fd5b60208082526021908201527f5374616b696e672070726f6365737320616c726561647920636f6d706c6574656040820152601960fa1b606082015260800190565b634e487b7160e01b600052601160045260246000fd5b808201808211156107c6576107c661079d565b92915050565b818103818111156107c6576107c661079d565b6000825160005b8181101561080057602081860181015185830152016107e6565b50600092019182525091905056fea264697066735822122026b67b2d449046f4d9e0e95a69bb357f16d5f10492b01a5f6e4335bf6d8542bc64736f6c63430008140033",
  "devdoc": {
    "author": "scaffold-eth",
    "kind": "dev",
    "methods": {
      "constructor": {
        "params": {
          "exampleExternalContractAddress": "Address of the external contract that will hold staked funds"
        }
      }
    },
    "title": "Staker Contract",
    "version": 1
  },
  "userdoc": {
    "kind": "user",
    "methods": {
      "constructor": {
        "notice": "Contract Constructor"
      },
      "execute()": {
        "notice": "Execute function that transfers funds to the external contract if threshold is met"
      },
      "stake()": {
        "notice": "Stake method that updates the user's balance"
      },
      "timeLeft()": {
        "notice": "Returns the number of seconds remaining until the deadline is reached"
      },
      "withdraw()": {
        "notice": "Allow users to withdraw their balance from the contract if the deadline has passed but the stake is not completed"
      }
    },
    "notice": "A contract that allows users to stake ETH",
    "version": 1
  },
  "storageLayout": {
    "storage": [
      {
        "astId": 20,
        "contract": "contracts/Staker.sol:Staker",
        "label": "exampleExternalContract",
        "offset": 0,
        "slot": "0",
        "type": "t_contract(ExampleExternalContract)12"
      },
      {
        "astId": 24,
        "contract": "contracts/Staker.sol:Staker",
        "label": "balances",
        "offset": 0,
        "slot": "1",
        "type": "t_mapping(t_address,t_uint256)"
      },
      {
        "astId": 29,
        "contract": "contracts/Staker.sol:Staker",
        "label": "deadline",
        "offset": 0,
        "slot": "2",
        "type": "t_uint256"
      }
    ],
    "types": {
      "t_address": {
        "encoding": "inplace",
        "label": "address",
        "numberOfBytes": "20"
      },
      "t_contract(ExampleExternalContract)12": {
        "encoding": "inplace",
        "label": "contract ExampleExternalContract",
        "numberOfBytes": "20"
      },
      "t_mapping(t_address,t_uint256)": {
        "encoding": "mapping",
        "key": "t_address",
        "label": "mapping(address => uint256)",
        "numberOfBytes": "32",
        "value": "t_uint256"
      },
      "t_uint256": {
        "encoding": "inplace",
        "label": "uint256",
        "numberOfBytes": "32"
      }
    }
  }
}